:100000000C9434000C9451000C9451000C94510049
:100010000C9451000C9451000C9451000C940B0161
:100020000C9451000C9451000C9451000C947500E8
:100030000C9451000C9451000C9451000C945100FC
:100040000C9451000C9451000C9451000C945100EC
:100050000C9451000C9451000C9451000C945100DC
:100060000C9451000C94510011241FBECFEFD8E026
:10007000DEBFCDBF12E0A0E0B1E0EAE6F6E002C0EC
:1000800005900D92A230B107D9F724E0A2E0B2E0CA
:1000900001C01D92AD30B207E1F70E9462010C94DD
:1000A00033030C94000080E480937C0087E8809305
:1000B0007A000895109280008DE08093810088E09E
:1000C0009DE3909389008093880082E080936F0085
:1000D000089582E08093B00093E09093B10096E29F
:1000E0009093B3008093700008951F920F920FB603
:1000F0000F9211242F933F934F935F936F937F93AE
:100100008F939F93AF93BF93EF93FF93EAE7F0E052
:1001100080818064808380917A0086FDFCCF20916D
:1001200078008091790090E0982F8827822B909317
:10013000080280930702609107027091080280E034
:1001400090E00E9410022EE836E040EF5CE30E944F
:100150009E0220E030E040EA51E40E946E010E94DD
:10016000DA017093060260930502643171053CF474
:1001700084E190E0909306028093050209C0633306
:10018000710534F082E390E09093060280930502BB
:1001900020E030E02CC0F901EE0FFF1FE050FF4FD0
:1001A00040815181405851096091050270910602C9
:1001B000469FC001479F900D569F900D112462E30A
:1001C00070E00E940B03CB0180589F4FF901EE0FA6
:1001D000FF1FEE0FFF1FE75FFD4F9183808380E8D5
:1001E00090E0861B970B938382832F5F3F4F2138CC
:1001F00031058CF2FF91EF91BF91AF919F918F915B
:100200007F916F915F914F913F912F910F900FBE12
:100210000F901F9018951F920F920FB60F921124F6
:100220008F939F93EF93FF938091020281111DC0E2
:10023000E0910302F0910402EE0FFF1FEE0FFF1F8B
:10024000E75FFD4F80818BB980910302909104029A
:100250008E37910529F581E0809302028FEF9FEFA1
:1002600090930402809303021BC0E0910302F0917B
:100270000402EE0FFF1FEE0FFF1FE75FFD4F8281AD
:100280008BB980910302909104028E37910541F45D
:10029000109202028FEF9FEF90930402809303026B
:1002A000809103029091040201969093040280933E
:1002B0000302FF91EF919F918F910F900FBE0F90CE
:1002C0001F9018958FEF8AB917B80E9453000E94AB
:1002D0005A000E9469007894FFCF5058BB27AA2784
:1002E0000E9485010C9464020E94560238F00E941C
:1002F0005D0220F039F49F3F19F426F40C94530268
:100300000EF4E095E7FB0C944D02E92F0E94750274
:1003100058F3BA17620773078407950720F079F43A
:10032000A6F50C9497020EF4E0950B2EBA2FA02D93
:100330000B01B90190010C01CA01A0011124FF2792
:10034000591B99F0593F50F4503E68F11A16F0408D
:10035000A22F232F342F4427585FF3CF469537958C
:100360002795A795F0405395C9F77EF41F16BA0B51
:10037000620B730B840BBAF09150A1F0FF0FBB1FFF
:10038000661F771F881FC2F70EC0BA0F621F731F48
:10039000841F48F4879577956795B795F7959E3FA5
:1003A00008F0B0CF9395880F08F09927EE0F979536
:1003B000879508950E94E1016894B1110C94980208
:1003C00008950E947D0288F09F5798F0B92F9927D1
:1003D000B751B0F0E1F0660F771F881F991F1AF030
:1003E000BA95C9F714C0B13091F00E949702B1E0FC
:1003F00008950C949702672F782F8827B85F39F0FB
:10040000B93FCCF3869577956795B395D9F73EF4C8
:1004100090958095709561957F4F8F4F9F4F089570
:10042000E89409C097FB3EF490958095709561958E
:100430007F4F8F4F9F4F9923A9F0F92F96E9BB2744
:100440009395F695879577956795B795F111F8CFC0
:10045000FAF4BB0F11F460FF1BC06F5F7F4F8F4F2B
:100460009F4F16C0882311F096E911C0772321F021
:100470009EE8872F762F05C0662371F096E8862FB9
:1004800070E060E02AF09A95660F771F881FDAF710
:10049000880F9695879597F9089597F99F6780E853
:1004A00070E060E008959FEF80EC089500240A94C6
:1004B0001616170618060906089500240A9412163F
:1004C0001306140605060895092E0394000C11F472
:1004D000882352F0BB0F40F4BF2B11F460FF04C01F
:1004E0006F5F7F4F8F4F9F4F089557FD9058440F78
:1004F000551F59F05F3F71F04795880F97FB991F83
:1005000061F09F3F79F0879508951216130614063F
:10051000551FF2CF4695F1DF08C0161617061806CC
:10052000991FF1CF86957105610508940895E894A7
:10053000BB2766277727CB0197F908950E94B10260
:100540000C9464020E94560238F00E945D0220F072
:10055000952311F00C944D020C94530211240C9429
:1005600098020E94750270F3959FC1F3950F50E0B9
:10057000551F629FF001729FBB27F00DB11D639F55
:10058000AA27F00DB11DAA1F649F6627B00DA11DFB
:10059000661F829F2227B00DA11D621F739FB00DA1
:1005A000A11D621F839FA00D611D221F749F332711
:1005B000A00D611D231F849F600D211D822F762FAA
:1005C0006A2F11249F5750409AF0F1F088234AF087
:1005D000EE0FFF1FBB1F661F771F881F91505040F3
:1005E000A9F79E3F510580F00C944D020C9498029F
:1005F0005F3FE4F3983ED4F3869577956795B7957A
:10060000F795E7959F5FC1F7FE2B880F911D969593
:10061000879597F9089597FB072E16F4009407D055
:1006200077FD09D00E941F0307FC05D03EF490958A
:1006300081959F4F0895709561957F4F0895AA1BEE
:10064000BB1B51E107C0AA1FBB1FA617B70710F0BD
:10065000A61BB70B881F991F5A95A9F780959095EF
:0A066000BC01CD010895F894FFCF0E
:10066A008000830086008A008C0090009300960028
:10067A0099009C009F00A200A500A800AB00AE0054
:10068A00B100B400B600B900BC00BF00C200C4008B
:10069A00C700C900CC00CE00D100D300D600D800D4
:1006AA00DA00DC00DE00E000E200E400E600E80038
:1006BA00EA00EC00ED00EF00F000F200F300F400B5
:1006CA00F600F700F800F900FA00FB00FB00FC0056
:1006DA00FD00FD00FE00FE00FE00FF00FF00FF001F
:1006EA00FF00FF00FF00FF00FE00FE00FD00FD000E
:1006FA00FC00FC00FB00FA00F900F800F700F60025
:10070A00F500F400F200F100F000EE00EC00EB005E
:10071A00E900E700E500E300E100DF00DD00DB00BF
:10072A00D900D700D400D200D000CD00CB00C80039
:10073A00C500C300C000BD00BB00B800B500B200D0
:10074A00AF00AC00A900A700A400A0009D009A0079
:10075A009700940091008E008B008800850082002B
:02076A0080000D
:00000001FF
